:020000040000FA
:060000000A128A11122809
:10000800FE00030E83120313B7000408B8000A08A1
:10001800B9007F08BA000A168A112F2C0A128A1111
:1000280015288317E330FD001C30FE007730FF00F1
:10003800C53084000A168A1535240A128A118313DA
:100048005530FD001030FE000030FF0051308400B4
:100058000A168A1535240A128A1183160317E30132
:10006800E401E501E60183171030840060300A16C8
:100078008A15DD230A128A1183160313EE01EF0194
:1000880083133F30840051300A168A15DD230A1283
:100098008A1183010A128A15812D831603135908C0
:1000A8008039DE005E088316031790008316031359
:1000B8005908DE005E07DF005F0883160317960005
:1000C80083160313D81F69286A286D288316031717
:1000D800161483160317160803197328742886281C
:1000E800160A031D782879288328003083160313FD
:1000F800D9000030D8000030D7000030D6000313F4
:10010800D8179028003083160313D9000030D80080
:100118000030D7000030D6005D088039DE005E0868
:10012800831603179006831603135D08DE005E0727
:10013800DF005F0883160317910083160313DC1F83
:10014800A628A728AA2883160317111483160317AD
:1001580011080319B028B128C328110A031DB528AE
:10016800B628C028003083160313DD000030DC00F9
:100178000030DB000030DA000313DC17CD28003034
:1001880083160313DD000030DC000030DB00003094
:10019800DA008316031711080319D328D428D9289D
:1001A8001608031DD828D928E4280030831603131D
:1001B800D9000030D8000030D7000030D600D32D49
:1001C800831603135608DE005E0883120313BB0070
:1001D800831603135C080A168A15C4250A128A11A5
:1001E800831203133C08831603179C00831203131E
:1001F8003B08831603179B001B0883160313DE00B6
:10020800DF01E001E10161088316031795008316F9
:1002180003136008831603179400831603135F08FB
:10022800831603179300831603135E0883160317B8
:1002380092001C0883160313DE00DF01E001E101D0
:100248006108831603179A00831603136008831640
:1002580003179900831603135F0883160317980082
:10026800831603135E088316031797008316031378
:100278005708DE005E0883120313BB0083160313BE
:100288005B080A168A15C4250A128A1183120313F9
:100298003C08831603179C00831203133B0883163C
:1002A80003179B001B0883160313DE00DF01E00120
:1002B800E1015E08831603179207831603135F088C
:1002C80003110318013E03196C29831603179307BA
:1002D80083160313600803110318013E03197729D5
:1002E8008316031794078316031361080311031871
:1002F800013E0319822983160317950783160313F2
:10030800831603171C0883160313DE00DF01E001C0
:10031800E1015E08831603179707831603135F0826
:1003280003110318013E03199C2983160317980724
:1003380083160313600803110318013E0319A72944
:10034800831603179907831603136108031103180B
:10035800013E0319B229831603179A07831603135C
:1003680083160317831603135808DE005E088312EA
:100378000313BB00831603135A080A168A15C425EB
:100388000A128A11831203133C08831603179C0070
:10039800831203133B08831603179B001B0883165D
:1003A8000313DE00DF01E001E1015E088316031795
:1003B8009207831603135F0803110318013E0319FC
:1003C800E82983160317930783160313600803119C
:1003D8000318013E0319F32983160317940783169C
:1003E8000313610803110318013E0319FE2983163C
:1003F8000317950783160313831603171C08831620
:100408000313DE00DF01E001E1015E088316031734
:100418009707831603135F0803110318013E031996
:10042800182A831603179807831603136008031105
:100438000318013E0319232A831603179907831605
:100448000313610803110318013E03192E2A8316AA
:1004580003179A07831603138316031708308316A6
:100468000313DE00031083160317920D930D940DEA
:10047800950D83160313DE0B362A5708DE005E0837
:1004880083120313BB00831603135A080A168A152E
:10049800C4250A128A11831203133C088316031712
:1004A8009C00831203133B08831603179B001B0849
:1004B80083160313DE00831603171C088316031321
:1004C800DF00E001E1015E08831603179207831637
:1004D80003135F0803110318013E0319762A8316D4
:1004E8000317930783160313600803110318013ECB
:1004F8000319812A831603179407831603136108C7
:1005080003110318013E03198C2A83160317950754
:100518008316031383160317831603135608DE0086
:100528005E0883120313BB00831603135B080A16C5
:100538008A15C4250A128A11831203133C088316EC
:1005480003179C00831203133B08831603179B00B1
:100558001B0883160313DE00831603171C08831673
:100568000313DF00E001E1015E0883160317920719
:10057800831603135F0803110318013E0319C72AE2
:1005880083160317930783160313600803110318D0
:10059800013E0319D22A83160317940783160313FF
:1005A800610803110318013E0319DD2A8316031796
:1005B800950783160313831603170830831603134E
:1005C800DE00031083160317920D930D940D950DFD
:1005D80083160313DE0BE52A5608DE005E08831235
:1005E8000313BB00831603135A080A168A15C42579
:1005F8000A128A11831203133C08831603179C00FE
:10060800831203133B08831603179B001B088316EA
:100618000313DE00831603171C0883160313DF0079
:10062800E001E1015E08831603179207831603139E
:100638005F0803110318013E0319252B83160317BE
:10064800930783160313600803110318013E031967
:10065800302B8316031794078316031361080311BD
:100668000318013E03193B2B8316031795078316BE
:10067800031383160317831603135708DE005E0857
:1006880083120313BB00831603135C080A168A152A
:10069800C4250A128A11831203133C088316031710
:1006A8009C00831203133B08831603179B001B0847
:1006B80083160313DE00831603171C08831603131F
:1006C800DF00E001E1015E08831603179707831630
:1006D80003135F0803110318013E0319762B8316D1
:1006E8000317980783160313600803110318013EC4
:1006F8000319812B831603179907831603136108BF
:1007080003110318013E03198C2B831603179A074C
:100718008316031383160317831603135808DE0082
:100728005E0883120313BB00831603135B080A16C3
:100738008A15C4250A128A11831203133C088316EA
:1007480003179C00831203133B08831603179B00AF
:100758001B0883160313DE00831603171C08831671
:100768000313DF00E001E1015E0883160317970712
:10077800831603135F0803110318013E0319C72BDF
:1007880083160317980783160313600803110318C9
:10079800013E0319D22B83160317990783160313F7
:1007A800610803110318013E0319DD2B8316031793
:1007B8009A0783160313831603178316031358081F
:1007C800DE005E0883120313BB00831603135C0864
:1007D8000A168A15C4250A128A11831203133C08C3
:1007E800831603179C00831203133B088316031711
:1007F8009B001B0883160313DE00831603171C08CF
:1008080083160313DF00E001E10108300310DE0D59
:10081800DF0DE00DE10DFF3E031D0A2C5E08831677
:1008280003179707831603135F0803110318013E84
:100838000319212C831603179807831603136008DE
:1008480003110318013E03192C2C8316031799076B
:1008580083160313610803110318013E0319372C8B
:10086800831603179A0783160313831603171208B0
:1008780083160313DE008316031713088316031366
:10088800DF0083160317140883160313E00083168A
:100898000317150883160313E10018300310E10C41
:1008A800E00CDF0CDE0CFF3E031D522C5E088316A5
:1008B80003179707831603135F0803110318013EF4
:1008C8000319692C83160317980783160313600806
:1008D80003110318013E0319742C83160317990793
:1008E80083160313610803110318013E03197F2CB3
:1008F800831603179A078316031383160317083002
:1009080083160313DE00031083160317920D930D4D
:10091800940D950D83160313DE0B872C831603178E
:100928001608110783160313DE00DF01DF0D5E08CA
:10093800823E831603179B00831603135F08031870
:10094800013EFF3E831603179C00D72C0130831607
:100958000313DE00031083160317970D980D990DE6
:100968009A0D83160313DE0BAE2C83160317951FFF
:10097800BE2CBF2CC02C1714013083160313DE00C5
:10098800031083160317920D930D940D950D83167E
:100998000313DE0BC42CFF30831603179B070318C1
:1009A8009C0AFF309C07991FDA2CDB2CAA2C91019A
:1009B800951FDF2CE02C0E2DFF3012058316031334
:1009C800DE00FF3083160317130583160313DF00B9
:1009D800FF3083160317140583160313E0007F30D6
:1009E80083160317150583160313E10061086004D5
:1009F8005F045E040319012D022D072D83160317CA
:100A08009101910A0E2D83160317171C0C2D0D2D1D
:100A18000E2D022D11080319122D132D602D0130F2
:100A28009707003003180130980700300318013089
:100A380099070030031801309A071A1C242D252D18
:100A4800602D170883160313DE0083160317180892
:100A580083160313DF00831603171908831603137D
:100A6800E000831603171A0883160313E100013008
:100A7800E200610DE10CE00CDF0CDE0CE20B3D2D19
:100A88006108831603179A008316031360088316F8
:100A980003179900831603135F088316031798003A
:100AA800831603135E0883160317970001309B070C
:100AB80003189C0A00309C071C08803AFF0080300D
:100AC8007F02031D692DFF301B02031C6C2D6D2D49
:100AD800782D7F30831603179A00803099000030F4
:100AE800980000309700B52D831603171C08803A2C
:100AF800FF0080307F02031D832D01301B02031885
:100B0800862D872D932D0030831603179A00003009
:100B1800990000309800003097009001B52D831699
:100B280003171B0883160313DE005E0883160317DA
:100B38009600FF309705FF3098057F309905003003
:100B48009A05161CA82DA92DAA2D991716088316E3
:100B58000313DE0003105E0CDF005F088316031723
:100B68009A00100883160313DE005E088316031725
:100B78009A041A0883160313D90083160317190851
:100B880083160313D8008316031718088316031354
:100B9800D70083160317170883160313D600080017
:100BA8008316031343088039C4004408CD00430862
:100BB800C4004407C5004508D400C21FE42DE52D34
:100BC800E62D541454080319EA2DEB2DFB2D540A75
:100BD800031DEF2DF02DF82D0030C3000030C200AA
:100BE8000030C1000030C000C217C301032E00301E
:100BF800C3000030C2000030C1000030C0003F0810
:100C08008039C4004408CD063F08C4004407C50025
:100C18004508D500BE1F112E122E132E5514550847
:100C28000319172E182E282E550A031D1C2E1D2EAB
:100C3800252E0030BF000030BE000030BD0000305F
:100C4800BC00BE17BF01302E0030BF000030BE0010
:100C58000030BD000030BC003F083E043D043C04A9
:100C6800031D372E382E512E0030C3000030C2002D
:100C78000030C1000030C0008030C2047F30C3049F
:100C88004D08C4004408C3044308BF004208BE001E
:100C98004108BD004008BC00B02F5408031D552E64
:100CA800562E5F2E0030BF000030BE000030BD0061
:100CB8000030BC00B02F5408C400C5014508C70067
:100CC80055084402C600031CC70346087F3ECE00F1
:100CD80047080318013E003ECF004308CC004208F5
:100CE800CB004108CA004008C9000030C3000030EA
:100CF800C2000030C1000030C0000030D300003016
:100D0800D2000030D1000030D000D501D52E5508D2
:100D180003198F2E902EB02E0130C4000310C90D78
:100D2800CA0DCB0DCC0DC40B922E0130C40003109C
:100D3800C00DC10DC20DC30DC40B9B2ED31FA52E14
:100D4800A62EA72E40140130C4000310D00DD10DDB
:100D5800D20DD30DC40BA92E3F084C02031DBE2E85
:100D68003E084B02031DBE2E3D084A02031DBE2E3F
:100D78003C084902031CC12EC22ED12E53173C0831
:100D8800C9023D08031C3D0FCA023E08031C3E0F62
:100D9800CB023F08031C3F0FCC020130C4004408BB
:100DA800D5071A305502031CDA2EDB2E8B2E4C0881
:100DB8004B044A0449040319E22EE32E022F50146F
:100DC800022F0130C4000310C00DC10DC20DC30DA8
:100DD800C40BE72ED31FF12EF22EF32E4014013050
:100DE800C4000310D00DD10DD20DD30DC40BF52EB8
:100DF800FF30CE070318CF0AFF30CF07C21F052FD9
:100E0800062FE52ED501D31F0A2F0B2F272FFF30D2
:100E18005005C400FF305105C500FF305205C6001B
:100E28007F305305C70047084604450444040319A6
:100E38001E2F1F2F222FD501D50A272F401C252F03
:100E4800262F272F1F2F550803192B2F2C2F5D2FE7
:100E58000130C007003003180130C1070030031803
:100E68000130C207003003180130C307431C3D2F6F
:100E78003E2F5D2F4008C4004108C5004208C60047
:100E88004308C7000130C800470DC70CC60CC50C85
:100E9800C40CC80B482F4708C3004608C2004508C1
:100EA800C1004408C0000130CE070318CF0A003043
:100EB800CF074F08803AFF0080307F02031D662F5E
:100EC800FF304E02031C692F6A2F782FFF308316DC
:100ED8000313CE000030CF000030C3000030C20042
:100EE8000030C1000030C000831603134F08803A59
:100EF800FF0080307F02031D832F01304E0203184C
:100F0800862F872F942F83160313CE01CF0100302D
:100F1800C3000030C2000030C1000030C000CD0165
:100F2800831603134E08C4004408D400541C9D2F94
:100F38009E2FA02FC217A42F7F30C4004408C205DB
:100F48005408C4000310440CC5004508C3004D08EC
:100F5800C4004408C304482E080083120313510830
:100F680083160313AE008312031352088316031368
:100F7800AF0083120313530883160313B0008312C0
:100F88000313540883160313B10002300310AE0D87
:100F9800AF0DB00DB10DFF3E031DCA2F0230031077
:100FA800AE0DAF0DB00DB10DFF3E031DD32F3108AF
:100FB800A3003008A2002F08A1002E08A0000030CE
:100FC800A7003D30A6000930A5000030A4000A168D
:100FD8008A11D0240A128A11831603132008FF3EAF
:100FE80092008312031397151715121492101215F5
:100FF8008316031307110800FF1B0A2883137F18A1
:1010080083170008840A0319FF0A080008308A00B9
:101018000408840A82070034013400340A34003496
:1010280064340034E834033410342734013402348F
:10103800043400347B342734743465346D347034AC
:1010480065347234613474347534723461342734DD
:1010580020343A3420342534643420342C34203479
:101068002734683475346D346934643461346434D5
:101078006534273420343A34203425346434203419
:101088002C3420342734763465346C346F3463342C
:1010980069346434613464346534273420343A3430
:1010A8002034253464342C342034273461346C34AF
:1010B800613472346D34273420343A342034253482
:1010C80064347D342434003431342034503465346D
:1010D8006434693464346F342034643465342034BF
:1010E80069346E3466346F3472346D346134633409
:1010F80061346F3420340A3400345034613473342A
:10110800733477346F3472346434203449346E3431
:1011180063346F3472347234653474346134003437
:101128003034203432342034743465346D347034BF
:1011380065347234613474347534723461342034F3
:101148000A340034503461347334733477346F3470
:1011580072346434203443346F34723472346534F6
:1011680074346134003449346E3473346534723401
:1011780069347234203450346134733473347734BE
:101188006F347234643400343034203431342034D1
:10119800683475346D3469346E346434613464345D
:1011A800653420340A340034303420343034203468
:1011B800763465346E3474346F3420340A34003431
:1011C80053346C3465346534703420344D346F34A2
:1011D800643465342E340034573461346B346934E4
:1011E8006E34673420345534703421340034253457
:0411F8006434003427
:101202000A168A15EE230A128A15A03083120313D6
:10121200BB000030BC000A168A1500240A128A1587
:10122200013083120313BB000030BC000A168A157A
:1012320000240A128A150A168A15EE230A128A1542
:10124200A03083120313BB000030BC000A168A15BB
:1012520000240A128A15831603132708A500A60183
:10126200250883120313BB00831603132608831277
:101272000313BC000A168A15B4240A128A150A1628
:101282008A15F7230A128A15A73083120313BC00AA
:101292000030BD000A168A11FD200A128A150800C4
:1012A200233083120313AB002B08AE002D2A253006
:1012B200330603195D295E296E293308AB00200825
:1012C20084008317211C83132B0880000130A007A0
:1012D2000318A10A0030A1072D2AAF010130A2078D
:1012E200FF30220784000A128A150A200A128A1580
:1012F200B300AB00AC012C08003A031981292D2A56
:101302002B08003A03193F2A643A03198C290D3A33
:1013120003198C292D2A2E08840083130008B1009A
:10132200840A0008B2000230AB002B08AE07B21FDD
:101332009B299C29A5290330AB002B08AF04B109D6
:10134200B209B10A0319B20AB301B30A3308AB00F6
:101352002B07013E84000A128A150A200A128A15F6
:10136200AC000A128A150A200A128A15AD002D084D
:101372003202031DBE292C0831020318C129C229D9
:10138200C329CD290130AB002B08B3070530330642
:10139200031DCC29CD29A7292F0803390319D229E6
:1013A200D329E2292D30AB00200884008317211CA9
:1013B20083132B0880000130A0070318A10A003014
:1013C200A1073308AB002B08B000242A0A30F8002A
:1013D2000030F9003008AB002B07013E84000A12EE
:1013E2008A150A200A128A15F0000A128A150A20A2
:1013F2000A128A15F1003208F3003108F2000A16C7
:101402008A1104200A128A157108FB007008FA007A
:101412000A168A156B260A128A157808303E83123C
:101422000313AC002C08B3003308AB00200884007F
:101432008317211C83132B0880000130A007031897
:10144200A10A0030A107FF30AB002B08B007300A19
:10145200031D2C2A2D2AE7290130A207FF3022077B
:1014620084000A128A150A200A128A15AB002B0878
:10147200B3003308031D3E2A3F2A5829200884005E
:101482008317211C831380010800AD3083160313D8
:10149200B5003508B800342B25303D060319522A11
:1014A200532A632A3D08B5002A08840083172B1C9F
:1014B2008313350880000130AA070318AB0A0030F5
:1014C200AB07342BB9010130AC07FF302C07840085
:1014D2000A128A150A200A128A15BD00B500B60141
:1014E2003608003A0319762A342B3508003A0319D4
:1014F200462B643A0319812A0D3A0319812A342BA7
:101502003808840083130008BB00840A0008BC006A
:101512000230B5003508B807BC1F902A912A9A2AD2
:101522000330B5003508B904BB09BC09BB0A03196D
:10153200BC0ABD01BD0A3D08B5003507013E840065
:101542000A128A150A200A128A15B6000A128A1588
:101552000A200A128A15B70037083C02031DB32A73
:1015620036083B020318B62AB72AB82AC22A013023
:10157200B5003508BD0705303D06031DC12AC22A44
:101582009C2A390803390319C72AC82AD72A2D30B9
:10159200B5002A08840083172B1C831335088000AA
:1015A2000130AA070318AB0A0030AB073D08B500AB
:1015B2003508BA002B2B0A30A4000030A5003A08E7
:1015C200B5003507013E84000A128A150A200A1264
:1015D2008A1583120313BB000A128A150A200A1203
:1015E2008A15BC00831603133C0883120313BE0042
:1015F200831603133B0883120313BD000A168A11D4
:101602009E200A128A15831203133C0883160313C1
:10161200A700831203133B0883160313A6000A16BE
:101622008A15A5260A128A15831603132408303E4A
:10163200B6003608BD003D08B5002A0884008317AD
:101642002B1C8313350880000130AA070318AB0A4C
:101652000030AB07FF30B5003508BA073A0A031D60
:10166200332B342BDC2A0130AC07FF302C078400EB
:101672000A128A150A200A128A15B5003508BD0019
:101682003D08031D452B462B4D2A2A08840083174B
:101692002B1C831380010800083083120313BB0044
:1016A2000030BC00DF300A168A158F250A128A150F
:1016B20083160313E6010A30D1005108E500DF303A
:1016C20083120313BC000030BD000A168A11FD20EC
:1016D2000A128A153130831603135F06031D722B1B
:1016E200732B842B593083120313BC008030BD004E
:1016F2000A168A11FD200A128A150A168A11482032
:101702000A128A15622C6108D100D2015108831293
:101712000313BB0083160313520883120313BC0086
:10172200E830BD000330BE000A168A15FB250A12F6
:101732008A15831203133B0883160313D300831203
:1017420003133C0883160313D4006208D500D601A4
:10175200550883120313BB00831603135608831222
:101762000313BC006430BD000030BE000A168A15A7
:10177200FB250A128A15831203133B0883160313EF
:101782005307D700831203133C0803183C0A83163D
:1017920003135407D8006308D900DA0159088312E9
:1017A2000313BB00831603135A0883120313BC00EE
:1017B2000A30BD000030BE000A168A15FB250A1247
:1017C2008A15831203133B08831603135707DB00A2
:1017D200831203133C0803183C0A831603135807A9
:1017E200DC0064085B07DD000030031801305C0791
:1017F200DE005D08B03EE7005E080318013E2F3EA2
:10180200E8006808BF006708BE000A168A1595241A
:101812000A128A15953083120313BC008030BD0072
:101822000A168A11FD200A128A154D2CC93083121C
:101832000313BC008030BD000A168A11FD200A1273
:101842008A15831603136808CC006708CB00832B24
:10185200B93083120313BC008030BD000A168A110E
:10186200FD200A128A15831603136808CE00670842
:10187200CD00832B853083120313BC008030BD0062
:101882000A168A11FD200A128A15831603136808A4
:10189200D0006708CF00832B831603136008D100A2
:1018A200D2015208003A0319572C832B5108303ABF
:1018B2000319172C013A0319292C033A03193B2C5B
:1018C200832B080083160313A101A201A301831233
:1018D20003130608BD003D0883160313A000422D22
:1018E200A40124080B3E84000A128A150A200A1257
:1018F2008A15FF3A83120313BD003D088604881936
:10190200832C842CA52C1A3083120313BE00F730CB
:10191200BD00BD0B8A2CBE0B8A2C8F2C83120313A5
:101922008819942C952CA52C881D982C992C952CD3
:10193200831603132408013E83120313BD003D08DE
:1019420083160313A3002F2D0819A82CA92CCA2C27
:101952001A3083120313BE00F730BD00BD0BAF2C4B
:10196200BE0BAF2CB42C831203130819B92CBA2C5A
:10197200CA2C081DBD2CBE2CBA2C831603132408B6
:10198200043E83120313BD003D0883160313A30014
:101992002F2D8818CD2CCE2CEF2C1A308312031346
:1019A200BE00F730BD00BD0BD42CBE0BD42CD92CFD
:1019B200831203138818DE2CDF2CEF2C881CE22CF8
:1019C200E32CDF2C831603132408073E8312031330
:1019D200BD003D0883160313A3002F2D0818F22C17
:1019E200F32C142D1A3083120313BE00F730BD00FE
:1019F200BD0BF92CBE0BF92CFE2C83120313081815
:101A0200032D042D142D081C072D082D042D8316DB
:101A1200031324080A3E83120313BD003D088316F4
:101A22000313A3002F2D8316031324080B3E8400F7
:101A32000A128A150A200A128A1583120313BD009C
:101A42003D0886050130BD003D0883160313A40737
:101A520003302402031C2E2D2F2D722C07308312EB
:101A62000313BE007C30BD00BD0B352DBE0B352DE2
:101A72000000053083160313A1070318A20A0030E1
:101A8200A207831203133C08831603132202031DC9
:101A9200502D831203133B08831603132102031CE8
:101AA200532D542D5C2D831203133B083C04031D5C
:101AB2005B2D5C2D632D8316031323080319622DFE
:101AC200632D712C831603132308031D692D6A2DC0
:101AD200722DFF3083120313BD003D0883160313DA
:101AE200A3000B302306031D772D782D792DA3013A
:101AF20020088312031386008316031323080800A9
:101B0200003083160313B1000030B0002530AF005F
:101B12008030AE000A168A1115270A128A15003083
:101B220083160313BC000030BB000030BA00FA3049
:101B3200B9000A168A1561270A128A150A168A1529
:101B4200E5230A128A150A128A11B1270A128A1586
:101B52008B170B170B160F308312031397002130CC
:101B62008316031392003230831203139500121569
:101B7200900190141011901510140730831603135E
:101B820081008B16D9308312031381008B16FF302C
:101B92008600831603138601FF308800FF3083120C
:101BA20003138800FF30831603138800FF3085007B
:101BB2000714871007118712061486130030831248
:101BC2000317E3000030E2000030E1000030E000E3
:101BD200E401E50183120313C501C60160308312DB
:101BE2000317E9000930EA00F430EB000130EC00A1
:101BF2002830ED000030EE00A83083120313BC0041
:101C02008030BD000A168A11FD200A128A1595300D
:101C120083120313BC008030BD000A168A11FD2016
:101C22000A128A15462FE601E701592E831603137D
:101C320006100F308800DC3083120313BB0005301E
:101C4200BC000A128A1563240A128A15303E8316D2
:101C52000317B700370883120317E800831603132C
:101C6200880106142F3083120317680603193A2ECF
:101C72003B2E592E68080A168A1523240A128A1541
:101C820083120317680883160317B700831203171A
:101C92006608603E840083160317370883178000A6
:101CA200013083120317E6070318E70A0030E7073B
:101CB2006708803AFF0080307F02031D622E0430E5
:101CC2006602031C652E662E172E83120317600808
:101CD20083160317B700B801370883120313BB003A
:101CE20083160317380883120313BC00E830BD00C3
:101CF2000330BE000A168A15FB250A128A158312C2
:101D020003133B0883160317B900831203133C081D
:101D120083160317BA008312031761088316031789
:101D2200BB00BC013B0883120313BB0083160317DD
:101D32003C0883120313BC006430BD000030BE00B7
:101D42000A168A15FB250A128A15831203133B0809
:101D5200831603173907BD00831203133C080318C7
:101D62003C0A831603173A07BE0083120317620860
:101D720083160317BF00C0013F0883120313BB0081
:101D820083160317400883120313BC000A30BD00F8
:101D92000030BE000A168A15FB250A128A15831224
:101DA20003133B08831603173D07C1008312031375
:101DB2003C0803183C0A831603173E07C20083122D
:101DC20003176308831603174107C3000030031883
:101DD20001304207C4004308B03E83120317E400F7
:101DE2008316031744080318013E2F3E831203177C
:101DF200E500D2306406043003196506031D022F84
:101E0200032F252F953083120313BC008030BD00B1
:101E12000A168A11FD200A128A15973083120313BB
:101E2200BC008030BD000A168A11FD200A128A15F4
:101E3200953083120313BC008030BD000A168A114C
:101E4200FD200A128A15462F953083120313BC0017
:101E52008030BD000A168A11FD200A128A157230DE
:101E620083120313BC008030BD000A168A11FD20C4
:101E72000A128A15953083120313BC008030BD000C
:101E82000A168A11FD200A128A15D230831203170C
:101E92006406043003196506031D502F512F142EBA
:101EA2000A168A1131230A128A150A128A15012189
:101EB2000A128A15013083120313C9000030CA00C6
:101EC2008316031386150810831203130810F42FC8
:101ED2000A168A15E1260A128A153F3084008316F3
:101EE2000317A330B7000408B8000830B900370858
:101EF200840083170008BA00B70A380884008313E5
:101F02003A088000B80AB90B782F0A168A155B24A2
:101F12000A128A150A168A15CF230A128A15003A5E
:101F22000319942F952FC62FCB30840083120317E9
:101F3200690883138000840A6A088000840A6B0897
:101F42008000840A6C088000840A6D088000840A7C
:101F52006E0880000A128A154D230A128A1569300A
:101F62008400831603134B0883178000840A4C08ED
:101F72008000840A4D088000840A4E088000840A8A
:101F82004F088000840A50088000BF30840083120A
:101F92000317690883138000840A6A088000840A90
:101FA2006B088000840A6C088000840A6D08800037
:101FB200840A6E0880000A168A11AE230A128A1554
:101FC200831203138619E62FE72FE92F8716EA2FCC
:101FD2008712823083160317B800DD30B700B70BC3
:101FE200F02FB80BF02F8312031349034A0403198D
:101FF200FB2FFC2F692FF42F0A128A111228883422
:10200200133400340034F501F60170087104031929
:102012000B280C284328F701F70A1A28013003106D
:10202200F00DF10DFF3E031D10280130F40074087D
:10203200F707F11F1D281E280F2801300310F50D88
:10204200F60DFF3E031D1F2871087302031D2B2886
:1020520070087202031C2E282F2836287008F202FC
:102062007108031CF303F302751401300310F10C21
:10207200F00CFF3E031D37280130F702031D4228F2
:1020820043281E287608F1007508F0000800103079
:1020920083160313AA000130AB000F30BE003E08C6
:1020A200AC0083120313400883160313AE0083129D
:1020B20003133F0883160313AD0083120313420870
:1020C20083160313B000831203134108831603130C
:1020D200AF0083120313440883160313B200831262
:1020E2000313430883160313B10083120313460834
:1020F20083160313B40083120313450883160313D4
:10210200B3000A128A1546220A168A111030831267
:102112000313BC000130BD000A168A11FD200A1605
:102122008A11953083120313BC008030BD000A1659
:102132008A11FD200A168A11080083160313A201D0
:10214200A301831203133B083C040319A928AA28FC
:10215200F02883160313A101A10ABC280130031041
:10216200BB0DBC0DFF3E031DB028013083160313C7
:10217200A0002008A10783120313BC1FC128C22894
:10218200AF280130831603130310A20DA30DFF3EE7
:10219200031DC528831203133C083E02031DD328E6
:1021A2003B083D02031CD628D728E0283B08BD0285
:1021B2003C08031CBE03BE02831603132214013023
:1021C20083120310BC0CBB0CFF3E031DE22801303E
:1021D20083160313A102031DEF28F028C2288316D9
:1021E2000313230883120313BC008316031322086C
:1021F20083120313BB00080083160313A301A40177
:102202003629831603132308831203133C0783160C
:102212000313A100831203133D0883160313A000C6
:102222000318A00AA31F1629A0038316031320086C
:10223200A200220883120313FF008316031321084E
:102242008400831203130A128A1500200A168A11C7
:102252000A168A1523240A168A11013083160313DB
:10226200A3070318A40A0030A40723088312031348
:102272003C0783160313A100831203133D08831640
:102282000313A0000318A00AA31F4829A003831662
:1022920003132008A200220883120313FF008316EF
:1022A200031321088400831203130A128A150020E3
:1022B2000A168A11003A031D5F29602902290800C3
:1022C200F601F11F652966296D29F009F109F00A65
:1022D2000319F10AF601F60AF31F702971297A2906
:1022E200F209F309F20A0319F30A0130F40074083F
:1022F200F606F701F8017008710403198129822991
:10230200B929F501F50A902901300310F00DF10DFC
:10231200FF3E031D86290130F4007408F507F11F02
:1023220093299429852901300310F70DF80DFF3EFA
:10233200031D952971087302031DA12970087202F9
:10234200031CA429A529AC297008F2027108031CF8
:10235200F303F302771401300310F10CF00CFF3E8B
:10236200031DAD290130F502031DB829B9299429AD
:1023720076080319BD29BE29C329F709F809F70A06
:102382000319F80A7808F1007708F0000800023013
:102392000A168A155B250A168A11831203133C0852
:1023A20083160317A000831203133B088316031737
:1023B2009F001F0883160313AE008316031720081D
:1023C20083160313AF000030AF1BFF30B000B10023
:1023D20001300A168A1181250A168A1183160313FF
:1023E2003108DD003008DC002F08DB002E08DA009F
:1023F2004130D900DC30D8000030D7000030D600A0
:102402000A128A1151200A168A11831603135908D7
:10241200C3005808C2005708C1005608C000423025
:10242200BF006030BE000030BD000030BC000A12A8
:102432008A11D4250A168A11831603133F08E6006F
:102442003E08E5003D08E4003C08E3000A168A1154
:10245200B5220A168A11831603136408831603171A
:10246200A20083160313630883160317A100220830
:102472009E0021089D000800003083160313B70058
:102482000030B6000030B5000030B4002F082E0432
:102492002D042C0403194E2A4F2AAC2AB801B80A7B
:1024A200672A013083120313BC000310831603133F
:1024B200AC0DAD0DAE0DAF0D83120313BC0B562A3E
:1024C2000130BC003C0883160313B807AF1F6A2A09
:1024D2006B2A522A013083120313BC0003108316A5
:1024E2000313B40DB50DB60DB70D83120313BC0B58
:1024F2006F2A831603132F083302031D8A2A2E081C
:102502003202031D8A2A2D083102031D8A2A2C0851
:102512003002031C8D2A8E2A9D2A2C08B0022D0817
:10252200031C2D0FB1022E08031C2E0FB2022F081E
:10253200031C2F0FB302341401300310AF0CAE0C86
:10254200AD0CAC0CFF3E031D9E2A0130B802031DE8
:10255200AB2AAC2A6B2A3708AF003608AE00350822
:10256200AD003408AC000800031083160313650D98
:10257200660DE7006708ED006D08031DC12AC22A37
:10258200CB2A0030E6000030E5000030E4000030E5
:10259200E300302B6308E7006408E8006508E900FF
:1025A2006608EA001F300310EA0CE90CE80CE70C9D
:1025B200FF3E031DD42A6708EB006B08EC00E51709
:1025C200FF30E305FF30E405FF30E5050030E605A6
:1025D2009630ED02ED1FEE2AEF2A092B6D08803AA4
:1025E200973E0318F52AF62AF72AC22A0130031069
:1025F200E60CE50CE40CE30CFF3E031DF82A013067
:10260200E7006708ED07031D072B082BF72A202B8D
:1026120020306D02031C0E2B0F2B1B2BC22A013004
:10262200E7000310E30DE40DE50DE60DE70B122BB9
:102632000130ED026D08031D1F2B202B102B6C089F
:102642000319242B252B302BE309E409E509E609BC
:10265200E30A0319E40A0319E50A0319E60A080062
:10266200A6308400C53083160313A2000408A30019
:102672001E30A4002208840083170008A500A20AC5
:1026820023088400831325088000A30AA40B3B2B94
:10269200A6300A168A15D9240A168A118312031340
:1026A2003C0883160313C500831203133B088316E9
:1026B2000313C400C601C7010A168A15EE230A16BF
:1026C2008A11A03083120313BB000030BC000A162B
:1026D2008A1500240A168A11003083120313BB00E4
:1026E200BC000A168A1500240A168A11982B831632
:1026F20003134608A63E840083130008A200A30128
:10270200220883120313BB008316031323088312C8
:102712000313BC000A168A1500240A168A11013016
:1027220083160313C6070318C70A0030C7078316A8
:1027320003134708803AA2004508803A2202031D8B
:10274200A42B44084602031CA72BA82B782B0A169D
:102752008A15F7230A168A11080083120313440804
:1027620083160313C700831203134308831603134C
:10277200C600831203134208803A83160313C5006E
:102782004208803A4502031DCA2B410883120313F3
:1027920041020318CD2BCE2B0A2C831603134408B7
:1027A200803AC500831203134008803A831603134C
:1027B2004502031DE22B831203133F088316031302
:1027C20043020318E52BE62B0A2C83160313400859
:1027D200803AC500831203134408803A8316031318
:1027E2004502031DFA2B83120313430883160313B6
:1027F2003F020318FD2BFE2B0A2C01308312031318
:10280200C5000030C6000A168A1532260A168A1139
:102812002E2C831603134708803AC5008312031334
:102822004408803A831603134502031D1E2C8312AB
:10283200031343088316031346020318212C222C88
:10284200292C023083120313C5000030C600042C69
:1028520083120313C501C601042C08000B1D322C80
:10286200332C8B2C0130CD070318CE0A0030CE0753
:102872000130CB070318CC0A0030CC07DA308100D4
:102882000B110A304D064E04031D482C492C742CA2
:10289200CD01CE010E08B500B6013508CF003608CD
:1028A200D0008E010B110730F0000030F10050080B
:1028B200F3004F08F2000A168A1161210A168A11E2
:1028C2007108FA007008F9005830FB000230FC0071
:1028D2000A168A15FE240A168A117A088316031329
:1028E200EF007908EE00F43083124B06031D7D2CB5
:1028F2004C03031D7D2C7E2C8B2CCB01CC01490378
:102902004A04031D852C862C8B2C0A168A15292530
:102912000A168A118B1C8E2C8F2CC32C8B108312BF
:10292200031349034A04031D972C982CAD2CC901AB
:10293200CA01D530F1008030F2000A168A151F272D
:102942000A168A119530F1008030F2000A168A15B3
:102952001F270A168A11C32C0130C9000030CA0091
:10296200E130F1008030F2000A168A151F270A169C
:102972008A119530F1008030F2000A168A151F275D
:102982000A168A11831203133A08FF0039088A00D3
:1029920038088400370E8300FE0E7E0E090083166F
:1029A2000313A901A31FD62CD72CE42CA009A1093B
:1029B200A209A309A00A0319A10A0319A20A031969
:1029C200A30AA901A90AA71FE72CE82CFB2CA4093A
:1029D200A509A609A709A40A0319A50A0319A60AA3
:1029E2000319A70A013083120313BB003B088316A5
:1029F2000313A9060030AD000030AC000030AB007C
:102A02000030AA00230822042104200403190A2DFD
:102A12000B2D682DA801A80A232D01308312031360
:102A2200BB00031083160313A00DA10DA20DA30D6D
:102A320083120313BB0B122D0130BB003B0883161C
:102A42000313A807A31F262D272D0E2D0130831255
:102A52000313BB00031083160313AA0DAB0DAC0DB9
:102A6200AD0D83120313BB0B2B2D83160313230807
:102A72002702031D462D22082602031D462D21088A
:102A82002502031D462D20082402031C492D4A2D30
:102A9200592D2008A4022108031C210FA502220897
:102AA200031C220FA6022308031C230FA7022A14C9
:102AB20001300310A30CA20CA10CA00CFF3E031DBD
:102AC2005A2D0130A802031D672D682D272D2908D4
:102AD20003196C2D6D2D782DAA09AB09AC09AD092E
:102AE200AA0A0319AB0A0319AC0A0319AD0A2D0885
:102AF200A3002C08A2002B08A1002A08A0000800AD
:102B020083160313B60036080319882D892D9D2DCF
:102B1200B11F8C2D8D2D9D2D2E09B8002F09B900C6
:102B22003009BA003109BB00B80A0319B90A0319FE
:102B3200BA0A0319BB0AA52D3108BB003008BA0036
:102B42002F08B9002E08B800310830042F042E04D3
:102B5200031DAC2DAD2DB62D0030B1000030B000FC
:102B62000030AF000030AE003C2E9630B20032088A
:102B7200B700C82D0130B2003208B7070130031088
:102B8200BB0CBA0CB90CB80CFF3E031DC02DFE30B5
:102B92003B05031DCD2DCE2DBB2DEA2D0130B200FC
:102BA2003208B7070130B807003003180130B907FF
:102BB200003003180130BA07003003180130BB0798
:102BC20001300310BB0CBA0CB90CB80CFF3E031D4C
:102BD200E22DFF303B05031DEF2DF02DCF2DFC2DF7
:102BE2000130B7020130B2000310B80DB90DBA0DB1
:102BF200BB0DB20BF52DBA1BFF2D002E062E023097
:102C020037020318052E062EF12D3718092E0A2E2B
:102C1200122EFF30B805FF30B9057F30BA05FF30FC
:102C2200BB050310B70C3708B200B301B401B501FC
:102C320018300310B20DB30DB40DB50DFF3E031DD8
:102C42001A2E3208B8043308B9043408BA04350815
:102C5200BB04360803192E2E2F2E342EB11F322E0E
:102C6200332E342EBB173B08B1003A08B0003908A6
:102C7200AF003808AE0008000330831603171E02A7
:102C8200FF3003191D020318472E482E142F1D086A
:102C920083160313AE00831603171E08831603134D
:102CA200AF00B001B10100300A168A1181250A165F
:102CB2008A11831603133108C3003008C2002F089B
:102CC200C1002E08C0004430BF007F30BE00C030BB
:102CD200BD000030BC000A128A11D4250A168A11DE
:102CE200831603133F08DD003E08DC003D08DB00CD
:102CF2003C08DA000030A7003D30A6000930A500EC
:102D02000030A400831203135108831603179F0097
:102D120083120313520883160317A00083120313AE
:102D2200530883160317A100831203135408831652
:102D32000317A200023003109F0DA00DA10DA20DDA
:102D4200FF3E031D9C2E220883160313A300831645
:102D52000317210883160313A20083160317200802
:102D620083160313A100831603171F088316031388
:102D7200A0000A168A11D0240A168A118316031398
:102D82002308B1002208B0002108AF002008AE00DD
:102D920001300A168A1181250A168A118316031335
:102DA2003108D9003008D8002F08D7002E08D600E5
:102DB2000A128A1151200A168A118316031359081E
:102DC200E6005808E5005708E4005608E3000A1632
:102DD2008A11B5220A168A11831603136408831610
:102DE20003179E00831603136308831603179D00BF
:102DF2001D18FC2E002F831203139716032F831224
:102E0200031397121712831603171E08A0001D083A
:102E12009F000310A00C9F0C0310A00C9F0C1F0816
:102E22008312031395000800831603132E08B200C1
:102E32002F08B3003008B4003108B5000630031083
:102E4200B20DB30DB40DB50DFF3E031D202F350895
:102E5200A3003408A2003308A1003208A0002E0803
:102E6200B6002F08B7003008B8003108B9000630A4
:102E72000310B60DB70DB80DB90DFF3E031D392F66
:102E82000030BA000930BB003D30BC000030BD004C
:102E92003608BA023708031C370F502F512FBB02D6
:102EA2003808031C380F562F572FBC023908031C51
:102EB200390F5C2F5D2FBD023D08A7003C08A6001C
:102EC2003B08A5003A08A4000A168A11D0240A1663
:102ED2008A1183160313210883120313BD0083167C
:102EE2000313200883120313BC0001303D0200309B
:102EF20003193C02031C7E2F7F2FE32F831603133B
:102F02002E08B2002F08B3003008B4003108B50013
:102F120004300310B20DB30DB40DB50DFF3E031D09
:102F22008A2F3508A3003408A2003308A100320812
:102F3200A0002E08B6002F08B7003008B8003108EC
:102F4200B90004300310B60DB70DB80DB90DFF3E30
:102F5200031DA32F0030BA000930BB003D30BC0076
:102F62000030BD003608BA023708031C370FBA2FEB
:102F7200BB2FBB023808031C380FC02FC12FBC0265
:102F82003908031C390FC62FC72FBD023D08A70001
:102F92003C08A6003B08A5003A08A4000A168A11BC
:102FA200D0240A168A1183160313210883120313ED
:102FB200BD0083160313200883120313BC0083167B
:102FC20003131815013083123D02003003193C022D
:102FD2000318EC2FED2FFF2F3C08831603139900E3
:102FE20018128312031398178316031387170717F0
:0E2FF200831203131816831603139816080093
:10379E000030831203138C1A0130080083120313B6
:1037AE008C1EDA2BDB2BD52B1A0808006400800147
:1037BE00840A0406031900340406DE2B41308312FA
:1037CE0003139F00C030831603139F0008000A16D0
:1037DE008A1516240A168A15831603131114080067
:1037EE000A168A1516240A168A158316031311153E
:1037FE0008000A168A1516240A168A158312031350
:10380E003B0893000800F00083160313981C102C3D
:10381E00112C0B2C700883120313990008008316C9
:10382E00031311081F39031D1D2C1E2C162C1419E1
:10383E00212C222C162C080083120313BB00831696
:10384E000313981C2B2C2C2C262C831203133B08B1
:10385E00990008007E088A007F0882000A168A15E1
:10386E0031240A168A158000840A04087D0603197D
:10387E000034FF0A0319FE0A352C01300A168A1588
:10388E005B250A168A15831203133C08831603134D
:10389E00A400831203133B0883160313A30024080A
:1038AE00A2002308A100080000300A168A155B2525
:1038BE000A168A15831203133C0883160317A400F5
:1038CE00831203133B0883160317A30024089E00DC
:1038DE0023089D000A168A113D260A168A1508002D
:1038EE002034543472346134623461346C3468344C
:1038FE006F34203453344134443420340A34203469
:10390E000034003400340034003400340034003409
:10391E00003400340034003400340034C1308316D7
:10392E000313AA000030AB00EC30C0004008AC001E
:10393E003F08AE003E08AD000A128A1546220A164E
:10394E008A15C13083120313BC000030BD000A1665
:10395E008A11FD200A168A1508000A168A151624E1
:10396E000A168A158316031391150A168A1516243C
:10397E000A168A158312031313080A168A151624BB
:10398E000A168A15831203133B083C040319D02C24
:10399E00D42C831603139116D72C8316031391126E
:1039AE001116080083160313A000200883120313B8
:1039BE00BD003D0883160313A100ED2C01308312C8
:1039CE000313BD003D0883160313A10721088400CD
:1039DE0083130008031DF42CF52CE52C200821027E
:1039EE0083120313BB00BC01BB1BBC030800831274
:1039FE000313A001A101791C052D062D0E2D7B08A8
:103A0E0083120313A0070318A10A7C08A107013033
:103A1E000310FB0DFC0DFF3E031D0F2D0130031097
:103A2E00FA0CF90CFF3E031D162D79087A04031DBE
:103A3E00212D222D022D831203132108FA002008B6
:103A4E00F9000800103083120313A0000130A1000A
:103A5E000F30B4003408A2004008A4003F08A300B1
:103A6E004208A6004108A5004408A8004308A70084
:103A7E004608AA004508A9000A128A1551210A16FD
:103A8E008A151030F1000130F2000A168A151F2730
:103A9E000A168A159530F1008030F2000A168A1542
:103AAE001F270A168A15080083160313A00001307B
:103ABE0083120313BD003D089F05831603132008D0
:103ACE0083120313BD0002300310BD0DFF3E031D14
:103ADE006B2D03103D0DBE003E089F040330831274
:103AEE000313BE009730BD00BD0B7B2DBE0B7B2D8F
:103AFE00831203131F151F19852D862D822D1E0867
:103B0E00BC00831603131E0883120313BB000800A8
:103B1E0083160313A200A301A401B12D0A168A1560
:103B2E00D5230A168A1583120313BD0083160313B9
:103B3E002308220783120313BE003E0884003D08AB
:103B4E0083138000013083160313A3070318A40AFE
:103B5E000030A407831203133C08831603132402B8
:103B6E00031DBF2D831203133B0883160313230279
:103B7E00031CC22DC32D952D080083160313A4001C
:103B8E00A001A101831203133B08BD00BE013D0835
:103B9E0083160313A200831203133E088316031326
:103BAE00A300241CDB2DDC2DE22D2208A007031818
:103BBE00A10A2308A10701300310A20DA30DFF3E99
:103BCE00031DE32D0310A40C2408031DEF2DF02D6F
:103BDE00D82D210883120313BC008316031320086B
:103BEE0083120313BB00080083160313A001A10167
:103BFE0083123B1C032E042E102E3D088316031336
:103C0E00A0070318A10A831203133E088316031399
:103C1E00A107013083120310BD0DBE0DFF3E031D23
:103C2E00122E01300310BC0CBB0CFF3E031D192ECF
:103C3E003B083C04031D242E252EFF2D8316031353
:103C4E00210883120313BC0083160313200883126A
:103C5E000313BB0008008312031345034604031924
:103C6E00392E3A2E482E0230450646040319402EB0
:103C7E00412E482E033045064604031D472E482E7E
:103C8E00602E48084606031D4E2E470845060319AA
:103C9E00512E522E602E871486170A168A1148202E
:103CAE000A168A15831203134608C8004508C70072
:103CBE006A2E45084604031D652E662E6A2E871051
:103CCE008613C701C8010800780879040319702EFD
:103CDE00712EA02EFD01FD0A7F2E01300310F80D6E
:103CEE00F90DFF3E031D752E0130FC007C08FD070B
:103CFE00F91F822E832E742E79087B02031D892EC6
:103D0E0078087A02031C8C2E8D2E932E7808FA02D8
:103D1E007908031CFB03FB0201300310F90CF80CAD
:103D2E00FF3E031D942E0130FD02031D9F2EA02E7B
:103D3E00832E7B08F9007A08F80008008316031317
:103D4E00240825040319AC2EAD2EDC2EA901A90AD8
:103D5E00BB2E01300310A40DA50DFF3E031DB12E89
:103D6E000130A8002808A907A51FBE2EBF2EB02E11
:103D7E0025082702031DC52E24082602031CC82E63
:103D8E00C92ECF2E2408A6022508031CA703A702BE
:103D9E0001300310A50CA40CFF3E031DD02E0130E4
:103DAE00A902031DDB2EDC2EBF2E2708A500260838
:103DBE00A40008000A168A1544240A168A158316CA
:103DCE000313220883160317B20083160313210868
:103DDE0083160317B1000A168A11C8210A168A150E
:103DEE00831603171E08B0001D08AF0083160313B9
:103DFE006F0883160317B400831603136E08831619
:103E0E000317B300A3308400AF30AB000408AC003E
:103E1E000830AD002B08840083170008AE00AB0AF3
:103E2E002C0884002E088000AC0AAD0B112F080060
:103E3E00F601F701442F76087107F4007208F300BB
:103E4E000318F30AF61F2C2FF3037308F5007508F9
:103E5E0083120313FF00740884000A128A150020CF
:103E6E000A168A150A168A150A240A168A150130A8
:103E7E00F6070318F70A0030F70776087107F40003
:103E8E007208F3000318F30AF61F4E2FF30373089C
:103E9E00F500750883120313FF00740884000A12DC
:103EAE008A1500200A168A15003A031D5F2F602F0F
:103EBE00222F080083160313871507162830831246
:103ECE00031394008316031391013908BD003A08B9
:103EDE00BE003B08BF003C08C00002300310BD0D01
:103EEE00BE0DBF0DC00DFF3E031D752F4008A30074
:103EFE003F08A2003E08A1003D08A0000030A70028
:103F0E000030A6000030A5006430A4000A168A1501
:103F1E00B0270A168A15831603132308AF0022084A
:103F2E00AE002108AD002008AC000030B3003D30DB
:103F3E00B2000930B1000030B0000A168A113D22DD
:103F4E000A168A15831603132C08FF3E930094015C
:103F5E000800003083160313AB000030AA000030B7
:103F6E00A9000030A800201CBD2FBE2FD52F24087D
:103F7E00A807250803110318013E0319C72FA90727
:103F8E00260803110318013E0319CE2FAA0727088E
:103F9E0003110318013E0319D52FAB07013083120D
:103FAE000313BB00031083160313A40DA50DA60D5A
:103FBE00A70D83120313BB0BD92F013003108316E9
:103FCE000313A30CA20CA10CA00CFF3E031DE52FA6
:103FDE002308220421042004031DF62FF72FBA2FE5
:103FEE002B08A3002A08A2002908A1002808A00077
:023FFE000800B9
:02400E003A3F37
:00000001FF
